:020000040800F2
:1000000038E0002029030008835C0008774D0008D1
:10001000815C00084F110008E19600080000000014
:10002000000000000000000000000000690200085D
:100030007915000800000000C5020008A37300083D
:100040004303000843030008430300084303000878
:1000500043030008430300087B150008430300081E
:1000600043030008811500088715000843030008B2
:100070004303000843030008430300084303000848
:100080004303000843030008430300084303000838
:100090005111000843030008430300088D150008B0
:1000A0004303000843030008430300084303000818
:1000B0004303000843030008430300084303000808
:1000C00043030008430300084303000843030008F8
:1000D000430300084979000843030008F579000844
:1000E00043030008430300084303000843030008D8
:1000F000430300084303000843030008B11100084C
:1001000043030008430300084303000843030008B7
:1001100043030008430300084303000843030008A7
:1001200043030008091200081512000843030008E1
:100130004303000843030008430300084303000887
:100140005D1100084303000843030008855C0008B4
:10015000D9140008E5140008F1140008C17A000859
:100160004303000843030008430300084303000857
:100170004303000843030008430300080000000095
:10018000430300084303000800F002F800F05CF8A5
:100190000AA090E8000C82448344AAF10107DA45E2
:1001A00001D100F051F8AFF2090EBAE80F0013F0D8
:1001B000010F18BFFB1A43F001031847DC0C0100C4
:1001C000FC0C01000A444FF0000C10F8013B13F046
:1001D000070408BF10F8014B1D1108BF10F8015BA0
:1001E000641E05D010F8016B641E01F8016BF9D193
:1001F00013F0080F1EBF10F8014BAD1C0C1B09D1EA
:100200006D1E58BF01F801CBFAD505E014F8016B5B
:1002100001F8016B6D1EF9D59142D6D370470000ED
:100220000023002400250026103A28BF78C1FBD8FF
:10023000520728BF30C148BF0B6070471FB50FF091
:10024000DDFF1FBD10B510BD00F057FA1146FFF7D6
:10025000F5FF0CF0CFFD00F075FA03B4FFF7F2FFE5
:1002600003BC00F085FA00002C4B19680868B0E860
:10027000F04F80F30988BFF36F8F4FF0000080F3D9
:10028000118870470000000008480068006880F38B
:1002900008884FF0000080F3148862B661B6BFF39F
:1002A0004F8FBFF36F8F00DF00BF00BF08ED00E08E
:1002B000DFF80C00016841F470010160704700BF75
:1002C00088ED00E0EFF30980BFF36F8F134B1A68DE
:1002D0001EF0100F08BF20ED108A20E9F04F1060CB
:1002E00009B44FF0500080F31188BFF34F8FBFF374
:1002F0006F8F0DF08FFF4FF0000080F3118809BC65
:1003000019680868B0E8F04F1EF0100F08BFB0EC95
:10031000108A80F30988BFF36F8F70478800002030
:10032000EFF30580704700000948804709480047FF
:10033000FEE7FEE7FEE7FEE7FEE7FEE7FEE7FEE795
:10034000FEE7FEE704480549054A064B70470000F2
:10035000517400088901000838A0002038E000200E
:1003600038C0002038C000209FED1A1AF5EE000AB0
:1003700040EE010ABDEEE00AF5EEC00A10EE100AEA
:10038000F1EE10FA38BF401E00EE100A1349F7EEE6
:10039000001AB8EEC00A30EEC00ADFED0F0A20EEF8
:1003A000200AFCEEC00A10EE900AC0F3080000EE2E
:1003B000900A01EB8000F8EE600A90ED011A70EEF1
:1003C000600A90ED000A71EEE01A21EE800A00EE5C
:1003D000810A704783F9223E000000444405010869
:1003E00053EA020C00F069802DE9F04B4FF0000653
:1003F000002B1FBFB3FA83F503FA05F424FA05F6C0
:100400005E4012BF1643B2FA82F502FA05F4C5F156
:1004100020051EBF22FA05FC44EA0C04203556EAEA
:10042000044C4FEA144418BF641C4FF000084FF00E
:100430000009904271EB030C39D3002919BFB1FABE
:1004400081F701FA07F6B0FA80F700FA07F6C7F16C
:1004500020071EBF20FA07FC46EA0C062037B6FB31
:10046000F4FCA7EB0507103F07F01F0BCBF12006AC
:100470000CFA0BFB2CFA06F644BFB3460026202FDD
:10048000A4BF5E464FF0000B5BEA060C08BF4FF0BE
:10049000010B19EB0B09ABFB027C48EB0608C01BF8
:1004A00006FB02CC0BFB03CC71EB0C01C1E70B4646
:1004B000024641464846BDE8F08B13B54FF00000B8
:1004C0004FF00001AFF30080BDE81C40704710B54D
:1004D000431C02E010F8011B71B18107FAD14FF003
:1004E000013202C88C1A8C4314EAC211F9D0C01A26
:1004F0000A0603D0C01E10BDC01A10BD0A0401D0E8
:10050000801E10BD0902FCD0401E10BD032A40F21F
:10051000308010F0030C00F0158011F8013BBCF1A5
:10052000020F624498BF11F801CB00F8013B38BFBD
:1005300011F8013BA2F1040298BF00F801CB38BFCB
:1005400000F8013B11F0030300F02580083AC0F0E9
:10055000088051F8043B083A51F804CBA0E8081091
:10056000F5E7121D5CBF51F8043B40F8043BAFF3C4
:100570000080D20724BF11F8013B11F801CB48BF1E
:1005800011F8012B24BF00F8013B00F801CB48BF54
:1005900000F8012B704710B5203AC0F00B80B1E88D
:1005A0001850203AA0E81850B1E81850A0E81850A8
:1005B000BFF4F5AF5FEA027C24BFB1E81850A0E8B1
:1005C000185044BF18C918C0BDE810405FEA827CCB
:1005D00024BF51F8043B40F8043B08BF7047D207E2
:1005E00028BF31F8023B48BF11F8012B28BF20F883
:1005F000023B48BF00F8012B704702F0FF0343EABB
:10060000032242EA024200F002B84FF0000204293D
:10061000C0F0128010F0030C00F01B80CCF1040C31
:10062000BCF1020F18BF00F8012BA8BF20F8022B65
:10063000A1EB0C0100F00DB85FEAC17C24BF00F80B
:10064000012B00F8012B48BF00F8012B70474FF039
:10065000000200B5134694469646203922BFA0E812
:100660000C50A0E80C50B1F12001BFF4F7AF09071E
:1006700028BFA0E80C5048BF0CC05DF804EB89000F
:1006800028BF40F8042B08BF704748BF20F8022B52
:1006900011F0804F18BF00F8012B7047704770476A
:1006A000704710B500F00CF8006810BD10B5044696
:1006B00000F006F8046010BD00487047D89F002085
:1006C00000487047D89F00201FB584B000200A9CC6
:1006D00006AB04AA02A90094AFF3008018B1DDE9CB
:1006E000020108B010BD0348204000F039F8002096
:1006F0000146F6E70000207C70477546FFF7DCFFF7
:10070000AE4605006946534620F00700854618B0FE
:1007100020B5FFF717FEBDE820404FF000064FF070
:1007200000074FF000084FF0000B21F00701AC4626
:10073000ACE8C009ACE8C009ACE8C009ACE8C00945
:100740008D46704710B50446AFF300802046BDE8E3
:100750001040FFF782BD002801D000F009B87047B3
:1007600010B500F025F8BDE81040FFF7F4BF000019
:1007700001491820ABBEFEE72600020070B5054611
:100780000C460A2000E06D1C00F068F835B12878AE
:100790000028F8D102E0641C00F060F814B1207861
:1007A0000028F8D1BDE870400A2000F057B80000DA
:1007B00010B5022803D0410103D50DA112E000209D
:1007C00010BD010101D50FA10CE0C10001D511A19F
:1007D00008E0810001D512A104E0400001D513A179
:1007E00000E0002115A0FFF7C9FF012010BD0000A7
:1007F000496E76616C6964204F7065726174696FCF
:100800006E000000446976696465204279205A656B
:10081000726F00004F766572666C6F7700000000A3
:10082000556E646572666C6F77000000496E65787E
:1008300061637420526573756C74000053494746B8
:1008400050453A2041726974686D6574696320652A
:100850007863657074696F6E3A20000008B5694668
:100860008DF800000320ABBE08BD0000464910B55E
:100870004A6822F440324A604A6843681A434A6030
:1008800001684A6822F480724A6001684A68036914
:1008900042EA03224A6001684A6822F040724A60D4
:1008A00001684A6883681A434A6001688A6822F4CA
:1008B00000628A6001688A68C3681A438A60816A34
:1008C0006FF07062D14201688A6822F070628A60BB
:1008D00001688A680CD0836A1A438A6001688A6852
:1008E00022F040528A6001688A68C36A1A4301E0B4
:1008F00022F040528A6001688A6822F002028A600F
:1009000001688A68037E42EA43028A6090F82010F8
:10091000002901684A680FD042F400624A60016809
:100920004A6822F460424A6001684A68174C436A88
:1009300004EB43331A4301E022F400624A60016889
:10094000CA6A22F47002CA620168CA6A838B104CB8
:1009500004EB03531A43CA6201688A6822F40072E6
:100960008A6001688A6890F8303042EA43228A60DF
:1009700001688A6822F480628A6001688A68406936
:1009800042EA8020886010BD0023014000E0FFFFA4
:100990000000F0FF0AF09CBA0AF030BBFFF7E4BC9D
:1009A000F0EE400AF5EEC00AF1EE10FA02DDB0EE0C
:1009B000600A7047B1EE600AFBE70000002803D030
:1009C0009FED020A80ED000A704700000000000061
:1009D000002803D0B3EE060A80ED000A704700003D
:1009E00070B52DED0C8B84B006460C4615469FED78
:1009F000990AF0EE408A9FED970AB0EE409A9FED7B
:100A0000950AF0EE40BA9FED930AF0EE409A9FED02
:100A1000910AB0EE40AA0EB104B11DB904B0BDEC0C
:100A20000C8B70BD8C48FFF7C9FF8C48FFF7D0FFD7
:100A30008A48D0ED000A9FED8A1A60EE810AB0EE76
:100A4000600A00F025F9F0EE408A28EEA80AF0EEE0
:100A5000408A8248D0ED000AB0EE001A60EE810AAA
:100A60009FED7F1A60EE810AB0EE600A00F010F987
:100A7000B0EE409A29EE090AB0EE409ADFED790A0D
:100A8000B7EE000A00EEA80ADFED770A00EEC90A09
:100A9000DFED760A20EE200A754880ED000A6E48E8
:100AA00090ED000ADFED730A80EE201AB7EE000A1F
:100AB00031EE000A20EE000A6D48D0ED000A80EE0B
:100AC000801A6D4880ED001A94ED000AB5EEC00A58
:100AD000F1EE10FA0DD194ED010AB5EEC00AF1EE77
:100AE00010FA06D194ED020AB5EEC00AF1EE10FA42
:100AF00046D09FED580AB0EE408A00200190029047
:100B00000390D4ED000A60EEA00A94ED011AD4ED32
:100B1000011A41EE210A94ED021AD4ED021A41EEB7
:100B2000210AB0EE600A00F0A9F8B0EE408A94ED18
:100B3000000A20EE080A8DED010A94ED010A20EE6C
:100B4000080A8DED020A94ED020A20EE080A8DEDE6
:100B5000030ADDED010AF1EE600AB0EE600AFFF76C
:100B600019FFF0EE409A9DED031AF0EE410A9DED5B
:100B7000021AB0EE410AFFF70FFFB0EE40AA07E0FD
:100B80009FED340AF0EE409A9FED320AB0EE40AA93
:100B900095ED000AB5EEC00AF1EE10FA0DD195ED13
:100BA000010AB5EEC00AF1EE10FA06D195ED020A7F
:100BB000B5EEC00AF1EE10FA3CD0B0EE690A00F0D2
:100BC00067F8B0EE408AB0EE690AFFF7E7FEB0EED4
:100BD00040DAB0EE4A0A00F05BF8F0EE40AAB0EE60
:100BE0004A0AFFF7DBFEB0EE40BA28EE2A0AD5ED3E
:100BF000010A20EE200AD5ED000A0DEE200A68EE6B
:100C00000B0A95ED021A00EE810AB0EE40CA95ED8E
:100C1000010A20EE0B0AD5ED020A0AEEE00AF0EE18
:100C200040CAF0EE6C0AB0EE4C0AFFF7B5FEF0EEEB
:100C300040BA03E09FED070AF0EE40BAB0EE4A1A60
:100C4000F0EE690AB0EE6B0A30460BF095FB00BF80
:100C5000E4E6000000000000000300200403002080
:100C600035FA8E3CC1BFAD3B9DF8C5362F7C1C418B
:100C700008030020506CC24A0C03002010B50AF093
:100C8000BBFCB7EE001AC1EE000AB0EE600A10BD60
:100C900010B510EE100A0FF0FBF941EC100B0AF042
:100CA0007FFB51EC100B0EF047F800EE100A10BD60
:100CB0002DE9F0412DED028B9AB00546B0EE408A49
:100CC0000E461746984600201790189019901490D9
:100CD000159016904DB146B13FB1B8F1000F04D058
:100CE000B5EEC08AF1EE10FA05D100201AB0BDECC5
:100CF000028BBDE8F08196ED000A8DED170A96EDA6
:100D0000010A8DED180A96ED020A8DED190A97ED8C
:100D1000000A8DED140A97ED010A8DED150A97ED85
:100D2000020A8DED160A17AA14A928460BF058F9E5
:100D3000402104A8FFF78BFC002000900190029056
:100D40000390002417A904A80CF080FE00BF30E037
:100D500004A800EB041090ED000AD5ED000A20EE87
:100D6000200A04A800EB0410D0ED010A95ED011A49
:100D700000EE810A04A800EB0410D0ED020A95ED04
:100D8000021A00EE810A04A800EB0410D0ED030A59
:100D900095ED031A00EE810A20EE080AF0EE000A33
:100DA00080EE201A684600EB840080ED001A601C7B
:100DB000C4B2042CCCDB002410E005EB840090EDE1
:100DC000000A684600EB8400D0ED000A30EE200AED
:100DD00005EB840080ED000A601CC4B2042CECDB3F
:100DE00028460CF013FD012080E7000001221021AD
:100DF000014801F072BC00000000024000221021F6
:100E0000014801F06ABC0000000002407047000089
:100E100001221146014801F060BC000000040240BC
:100E200000220121014801F058BC000000040240EA
:100E300030B5437804781B021BB2234300EE103A0E
:100E4000194CB8EEC00AD4ED010A20EE200A81ED5B
:100E5000000AC37885781B021BB22B4300EE103AC0
:100E6000D4ED010AB8EEC00A20EE200A81ED010A95
:100E7000437904791B021BB2234300EE103AB8EE0B
:100E8000C00A20EE200ADFED090A81ED020AD0F83F
:100E9000060020F07F4000EE100AB8EE400A20EE77
:100EA000200A82ED000A30BDC402002000401C422E
:100EB00070470BF0DCBF0BF02DBE000010B5427880
:100EC0000378120212B21A4300EE102A124BB8EE47
:100ED000C00AD3ED020A20EE200A81ED000AC27892
:100EE0008478120212B2224300EE102AD3ED020AD5
:100EF000B8EEC00A20EE200A81ED010A427900799D
:100F0000120212B2024300EE102AB8EEC00A20EE1E
:100F1000200A81ED020A10BDC402002010B5FFF7BF
:100F200075FFFFF7C5FF0BF071FB08B1802402E0ED
:100F30000BF0D8FA04460BF037FD10B144F0400036
:100F400010BD0BF0C3FC204310BD00002DE9FC4197
:100F50000746002016460D4600900190FFF74EFF11
:100F6000922000F0BDF806226946122000F09AF89F
:100F7000FFF73CFF9DF801009DF80010000200B251
:100F8000084300EE100A464CB8EEC00AD4ED010A40
:100F900020EE200A85ED000A9DF803009DF802105E
:100FA000000200B2084300EE100AD4ED010AB8EEC8
:100FB000C00A20EE200A85ED010A9DF805009DF883
:100FC0000410000200B2084300EE100AB8EEC00A96
:100FD00020EE200A85ED020AFFF722FF082269466B
:100FE000002000F05FF8FFF713FF9DF800000F28C6
:100FF00030D19DF803009DF80210000200B20843B2
:1010000000EE100AD4ED020AB8EEC00A20EE200A63
:1010100087ED000A9DF805009DF80410000200B25B
:10102000084300EE100AD4ED020AB8EEC00A20EE22
:10103000200A87ED010A9DF807009DF806100002BE
:1010400000B2084300EE100AB8EEC00A20EE200AF3
:1010500087ED020AFFF7D2FEA22000F041F802223B
:101060006946222000F01EF8FFF7C0FE9DF8000040
:101070009DF80110C00040EA5110B0F5806F01DB0F
:10108000A0F5006000EE100AB4EE001AF8EEC00AF7
:10109000B3EE070A00EE810A86ED000ABDE8FC8186
:1010A000C402002070B514460D4640F0800000F0E8
:1010B00017F806E0552000F013F8641E05F8010B40
:1010C000E4B2002CF6D170BD10B50C4640F08000A3
:1010D00000F006F8552000F003F8207010BD000065
:1010E00001B582B04FF47A700090012301AA02A9E1
:1010F000024803F0CFF89DF804000EBD240C002038
:1011000002784078D20042EA50100B4AB0F5806F66
:10111000108002DBA0F500601080B2F90000B4EE90
:10112000001A00EE100AF8EEC00AB3EE070A00EE4D
:10113000810A81ED000A7047C402002010B50C46F8
:10114000FFF7CEFF2046BDE81040FFF7C9BFFEE71E
:10115000014800F078BD0000480A0020014800F076
:1011600072BD0000700A0020002070470020704708
:1011700010B500220449054806F0DEFE0449034884
:1011800006F0CDFE002010BDF8250020F011002053
:10119000F81D002010B50146034806F0C0FE0248C5
:1011A00006F096FE002010BDF011002000207047D0
:1011B000124A10B5506800011ED5114B114C586BE6
:1011C00001684FF00060A14202D90E494C3905E098
:1011D0000A4CB834A14203D90A495039086006E0E4
:1011E000064C5834A14201D9D06000E090601868E4
:1011F000016841F40071016010BD00000060024010
:10120000EC0A002058640240014800F0CBBF000007
:10121000901100202DE9F05FA748A84BA84CC06CA6
:10122000A64DA74EA54F0068A449DFF89492DFF8B9
:101230008CA2DFF88CB2DFF884E2A14A483B60342C
:1012400018351836303F09F178090AF1300A4FF4A1
:10125000006C0BF1300BAEF1180E884223D9974980
:10126000543926E0A84233D14FF020080AE0504517
:1012700035D1E04606E000BF4FF4001802E000BFA1
:101280004FF0006811EA080F7CD08C49884253D98E
:10129000904205D0984203D0A04201D0A8422FD15D
:1012A0004FF0200C45E08649A831884203D9834994
:1012B0005839096805E08249483188428149F8D99E
:1012C00049689042D0D09842CED0A042CCD0C9E755
:1012D000B042CED0B842CCD04845CAD0C7E7584576
:1012E000CAD07045C8D0DFF8D88108F190084045D1
:1012F000C2D0DFF8C88108F148084045C0D1BBE73B
:10130000B04216D0B84214D0484512D0504510D043
:10131000584509D0704507D069499031884203D0BB
:1013200066494831884202D14FF4001C01E04FF079
:10133000006C62484C382AE06149A831884229D9BA
:10134000904205D0984203D0A04201D0A84202D1D9
:101350004FF0200C19E0B04217D0B84215D04845E4
:1013600013D0504511D0584509D0704507D0544985
:101370009031884203D051494831884203D14FF41B
:10138000001C02E095E04FF0006C4C485038C0F86B
:1013900000C052E04A494831884227D9904205D0DE
:1013A000984203D0A04201D0A84202D14FF0200CB5
:1013B00018E0B04216D0B84214D0484512D050457B
:1013C00010D0584509D0704507D03D49903188422A
:1013D00003D03A494831884202D14FF4001C01E061
:1013E0004FF0006C3748C0F80CC026E0904205D0A2
:1013F000984203D0A04201D0A84202D14FF0200C65
:1014000018E0B04216D0B84214D0484512D050452A
:1014100010D0584509D0704507D0294990318842ED
:1014200003D026494831884202D14FF4001C01E024
:101430004FF0006C2348C0F808C0234C6078800748
:101440000CD5607820F002006070607840F00400F5
:101450006070012211461D4801F03FF9A0781C4D33
:1014600080070CD5A07820F00200A070A07840F092
:101470000400A07001221021284601F02EF9E07826
:1014800080070CD5E07820F00200E070E07840F0B2
:101490000400E07001221021284601F01EF908F036
:1014A00081FA6078400704D50A48016841F00101DB
:1014B0000160BDE8F09F0000240C00205864024049
:1014C000106002400060024004020020000402405C
:1014D00000000240103C0140014800F063BE0000E3
:1014E00070100020014800F05DBE000030110020A7
:1014F000014800F057BE00001010002001681823BA
:10150000CAB2103AB2FBF3F2054B6FF30901032A9A
:101510009B5CC36500D9091D8165084670470000C2
:10152000B404010810B5014600208B698A6A4FF0A7
:10153000C07453B1B3F5005F15D072B1012A0CD05D
:10154000022A0AD0032A09D104E01AB1012A06D0DE
:10155000022A03D1C96AC90100D5012010BDC96A98
:10156000A142FAD010BD002AF7D0012AF2D0022AF7
:10157000F3D0032AF3D010BD7047012000F0A4BFC0
:10158000082000F0A1BF102000F09EBF202000F036
:101590009BBF72B6FEE7000078B50024009490F877
:1015A0003C20012A19D0012280F83C200A68072338
:1015B0000568092A13D9EE680A3A02EB4202934001
:1015C0009E43EE600B788A680A3B03EB43039A4024
:1015D0000368DD682A43DA6010E0022078BD2E69D6
:1015E00002EB420293409E432E610B788A6803EB24
:1015F00043039A4003681D692A431A614A681F23FE
:10160000072A13D205686E6B521E02EB82029340CA
:101610009E436E630B790A885B1E92B203EB8303D1
:101620009A4003685D6B2A435A6327E005680D2AD8
:1016300012D22E6BD21F02EB820293409E432E6386
:101640000B790A88DB1F92B203EB83039A4003688D
:101650001D6B2A431A6311E0EE6A0D3A02EB820217
:1016600093409E43EE620B790A880D3B92B203EBE6
:1016700083039A400368DD6A2A43DA62164B0568E1
:10168000144A9D4206D10D68122D03D1556845F4C8
:101690008005556005689D4218D10B68102B01D05C
:1016A000112B13D1536843F40003536009681029C8
:1016B0000CD10A490A4A0968B1FBF2F101EB810138
:1016C000490000E0491E00910029FBD180F83C4010
:1016D000002078BD0023014000200140840000204C
:1016E00040420F000068C06C704770B504004FF0B6
:1016F000000503D0206C002610B107E0012070BD6A
:10170000204600F01DF8666484F83C60206CC0063A
:1017100010D4206C20F4885040F002002064204651
:10172000FFF7A4F86664206C20F0020040F001008E
:10173000206400E0012584F83C60284670BD00006C
:1017400010B586B0044614216846FEF780FF174B9B
:101750002268002116489A4209D1016841F480713B
:101760000160006800F48070059006B010BD114B58
:101770009A42FAD1026842F480620260006800F482
:10178000806005900A481438026842F02002026026
:10179000006800F020000590181500900320CDE9A6
:1017A00001016946044800F09BFEDEE7002001408D
:1017B0004438024000220140001402402DE9F0416B
:1017C000044600680D4681684FF0000749050BD5B7
:1017D0008068C00508D5206C40F02000206484F8A3
:1017E0003C700120BDE8F08100F07CFF064613E06C
:1017F000681C11D025B100F075FF801BA8420BD9E1
:1018000020680068800707D4206C40F00400206442
:1018100084F83C700320E5E7206800688007E7D57E
:1018200021686FF012000860206C40F400702064A2
:101830002068816811F0405F13D1217E89B9C16AA7
:1018400011F4700F02D0806840050AD4206C20F497
:1018500080702064206CC00403D4206C40F0010030
:1018600020640020BEE7000018B50021009190F828
:101870003C20012A07D0012280F83C2002689368AE
:10188000DB0702D011E0022018BD936843F001038A
:1018900093602E4A2E4B1268B2FBF3F202EB420227
:1018A00000E0521E0092002AFBD102689368DB0719
:1018B00042D0036C40F20164A34343F48073036499
:1018C00053685B0505D5036C23F4005343F4805340
:1018D0000364036CDB0404D5436C23F00603436408
:1018E00000E0416480F83C101A496FF02203136055
:1018F00049680068CA06184906D0884224D1816820
:1019000011F0405F13D01FE08842F8D0134A904294
:1019100003D1D1F80423D206F1D0114A904213D159
:10192000D1F8041301F01F011029E8D30CE08168FD
:1019300041F08041816007E0016C41F010010164D9
:10194000416C41F001014164002018BD8400002079
:1019500040420F00002301400020014000210140CF
:101960000022014090F82020012A07D0022A05D049
:10197000416A41F480214162012070470068426958
:101980000A43426100207047F0B590F82050046887
:10199000A468012D05D0022D03D0416A41F48021B5
:1019A00053E014F0406F01D1E5004BD5C4F301645E
:1019B000022C03D9416A41F4000146E00125A5400B
:1019C0001D608D684FF4C0739DB1CE6835434E687D
:1019D00045EAC605066803EB0417F5514FF4C275D6
:1019E000076805EB04150E697E51097D012905D0B4
:1019F00009E00E88CD6845EA4655EBE701684E5987
:101A000046F480764E511179D2F805504FF4C676DF
:101A100041EA0525016806EB04168D511178D2F8CC
:101A200001204FF4C47541EA0221026805EB041558
:101A30005151006803EB0411425842F00102425038
:101A40000020F0BD416A41F4001141620120F0BD67
:101A500010B590F82020012A07D0022A05D0416A4B
:101A600041F480214162012010BD3B48D0F80022A2
:101A700042F00102C0F80022D0F8002222F47C5289
:101A8000C0F80022D0F800224B6A42EA0322C0F8D4
:101A900000220A7D02F01F0301229A40D0F81C3276
:101AA0009343C0F81C32CB69B3B9D0F80C329343DE
:101AB000C0F80C328C894B6864F31F434C6900EB0F
:101AC000C404C4F840320C890B6864F31F434C69AA
:101AD00000EBC404C4F84432CB69012B16D1D0F812
:101AE0000C321343C0F80C320C884B6864F31F436C
:101AF0004C6900EBC404C4F840320C89CB6864F331
:101B00001F434C6900EBC404C4F844328B69002BBA
:101B1000D0F804320ED01343C0F804320B69002B06
:101B2000D0F8143208D01343C0F81432096A0129DE
:101B300004D008E09343EFE79343F5E7D0F81C1295
:101B40001143C0F81C12D0F8001221F00101C0F8B6
:101B50000012002010BD000000640040704730B546
:101B600090F82040012C05D0022C03D0416A41F4AA
:101B700080215DE00468002955D02469A40754D071
:101B80004FF4D874056804EB01142D5915F00405C1
:101B9000956005682D594ED0ED08556005682C59A3
:101BA00004F00204D4604FF4DA74056804EB011405
:101BB0002D5905F00F05156105682D59C5F3072549
:101BC000956105682C59240C54614FF4DC7204684B
:101BD00002EB0112A4581C700468A458240A5C701B
:101BE0000468A458240C9C700468A258120EDA7081
:101BF0004FF4DE72046802EB0112A4581C710468F1
:101C0000A458240A5C710468A458240C9C710468CC
:101C1000A258120EDA71006881B1016941F0200109
:101C20000161002030BDE468A8E7416A41F4001179
:101C30004162012030BD6D0D1560AFE7C16841F014
:101C40002001C160EDE72DE9F05F05460068002442
:101C50004669D0F804908768D0F80CB0D0F810A08E
:101C6000D0F81880F10748D0F90714D0012181601D
:101C7000B80703D5284600F06AFA0CE0780702D5C9
:101C80004FF4006407E0380702D54FF4805402E0B7
:101C9000284600F05BFAF80516D529684FF48070E5
:101CA0008860B80503D5284600F053FA0CE07805A3
:101CB00002D544F4005407E0380502D544F48044CA
:101CC00002E0284600F044FAF80316D529684FF4DC
:101CD00080308860B80303D5284600F03CFA0CE059
:101CE000780302D544F4004407E0380302D544F4F5
:101CF000803402E0284600F02DFA300707D55FEA6D
:101D0000CB6004D52968102044F40074C8607007C3
:101D10004FF0080707D55FEA0B7004D52868C76045
:101D2000284600F099F9B00706D52868C0688007F2
:101D300002D0284600F092F9700607D55FEACA6023
:101D400004D52968102044F480640861B00607D5E2
:101D50005FEA0A7004D528680761284600F0C6F9D2
:101D6000F00606D528680069800702D0284600F0F2
:101D7000BEF9B00308D55FEAC96005D5296810200F
:101D80004860284600F0B4F9F00307D55FEA09700F
:101D900004D528684760284600F0DEF9300446D5AF
:101DA0005FEA497040D5F00504D55FEAC87001D0FC
:101DB00044F00104B00504D55FEA887001D544F011
:101DC0000204700504D55FEA487001D544F00404AC
:101DD000300529D518F0700F26D008F07000402883
:101DE00015D006DC102809D020280AD0302816D1BA
:101DF0000AE050280ED0602811D10EE044F008040B
:101E00000DE044F010040AE044F0200407E044F040
:101E1000400404E044F0800401E044F48074286845
:101E2000816921F070018161296804204860002CDB
:101E300005D0686A204368622846FFF78FFEBDE838
:101E4000F09F70B5040003D094F8200010B104E0B6
:101E5000012070BD204600F081F82068016841F043
:101E60000101016000F03EFC0546052604E000F09B
:101E700039FC401B0A2811D820684068C007F6D0FA
:101E80002068016821F00201016000F02BFC05468A
:101E90000BE000F027FC401B0A2806D9606A40F4DA
:101EA0000030606284F82060D2E7206840688007D4
:101EB000EFD4207E0128206801683DD021F0800108
:101EC0000160607E01282068016838D021F040015F
:101ED0000160A07E01282068016833D021F0200134
:101EE0000160E07E0128206801682ED041F01001D9
:101EF0000160207F01282068016829D021F00801B5
:101F00000160607F01282068016824D021F004016D
:101F10000160D4E902010843D4E9041211430843E3
:101F20006168491E08432168C86100206062012081
:101F300084F82000002070BD41F08001C0E741F02E
:101F40004001C5E741F02001CAE721F01001CFE7C9
:101F500041F00801D4E741F00401D9E7F0B587B0BA
:101F6000044614216846FEF772FB364B3648DFF80C
:101F7000D0E01968D4F800C0334A032502260927A7
:101F800010300024491CF44522D11960012907D1E1
:101F9000016841F000710160006800F00070059078
:101FA000106840F0080010601068CDE9005600F09D
:101FB0000800CDE9047069462448CDE9024500F0E7
:101FC0008FFA00220621142000F002FF142032E0D4
:101FD000DFF87CE0F44530D1D0F800C04CF0806CE4
:101FE000C0F800C0D0F800C001290CF0806CCDF81A
:101FF00014C0196007D1016841F0007101600068E8
:1020000000F000700590106840F002001060106849
:1020100002AB00F0020005906020CDE9000683E8E5
:10202000B00069460B4800F05BFA00220621402010
:1020300000F0CEFE402000F0BDFE07B0F0BD000075
:10204000006400400800002030380240000C0240CC
:1020500000680040000402407047000000B52049BD
:1020600089B088420FD16B4602AA0021FFF777FDA5
:102070000298A0F58070013803D16946194807F02D
:10208000C7FD09B000BD18498842FAD16B4602AAC3
:102090000021FFF764FD029840F24112A0F24111C5
:1020A000904214D009DC11F14000E6D00128E8D1BB
:1020B00069460C4807F0D4FDE3E701290AD0B1F5E1
:1020C000E27FDED16946074807F0B0FDD9E76A46EE
:1020D000002101E06A460121024807F08FFED0E7A7
:1020E000700A002028960020480A00207047704798
:1020F0007047000070B5044690F82000012804D015
:10210000606A40F40020606218E0022084F8200039
:102110002068016821F00101016000F0E3FA054642
:102120000EE000BF00F0DEFA401B0A2808D9606A02
:1021300040F400306062052084F82000012070BD6A
:1021400020684068C007EDD1606270BD704770477D
:102150007047704770477047704710B5040002D051
:10216000607910B106E0012010BD002020712046EA
:1021700000F004F801206071002010BD08B500686F
:102180000649884208D10648016841F4805101603F
:10219000006800F48050009008BD0000003002404C
:1021A000303802402DE9F84304464FF00009CDF8DD
:1021B000009063484FF41651A56D0068B0FBF1F72D
:1021C0002E6894F85C10082000FA01F131420FD01B
:1021D00021680A6852070BD50A6822F004020A60D7
:1021E00094F85C108840A860606D40F00100606564
:1021F00094F85C104FF0010808FA01F0304208D062
:1022000021684969090604D5A860606D40F00200A4
:10221000606594F85C1004208840304208D0216842
:102220000968890704D5A860606D40F00400606506
:1022300094F85C1010208840304218D0216809685A
:10224000090714D5A86020680168490304D500680F
:10225000000308D5A16C07E00168C90503D4016833
:1022600021F008010160216C09B12046884794F8EB
:102270005C1020208840304231D021680968C906AE
:102280002DD5A86094F8350005282068016806D08F
:10229000490347D5006800031DD4616C1CE021F0A0
:1022A000160101602068416921F080014161206CC4
:1022B00008B9A06C20B12068016821F00801016014
:1022C00094F85C103F208840A86084F8358084F83A
:1022D0003490216D1FE0E16B09B120468847606DA5
:1022E00000282BD0606DC00714D0052084F835007D
:1022F0002068016821F0010101600098401C0090F5
:10230000B84203D820680068C007F6D184F8358049
:1023100084F83490E16C002910D001B02046BDE86B
:10232000F04308470168C905D5D4016821F01001C0
:10233000016084F8358084F83490CCE7BDE8F883F8
:10234000840000202DE9F041044600F0CBF9064658
:102350005CB1022084F83500002584F834502068F0
:10236000016821F0010101600DE00120BDE8F0816C
:1023700000F0B8F9801B052805D9202060650320EE
:1023800084F83500F2E720680068C007F0D12268C1
:10239000116820480140D4E901031843D4E9033609
:1023A0003343184363691843A3691843E369184327
:1023B000236A18430843616A042903D1D4E90B1343
:1023C00019430843106020684069666A20F00701DD
:1023D00030460E43012704280CD1A06A0643E06A68
:1023E00040B12046FFF79EF820B14020606584F898
:1023F0003570BAE7206846612046FFF77FF894F809
:102400005C203F2191408160656584F83570002033
:10241000ACE700003F8010F070B5044600F062F9B0
:102420000546601C02D004480078044400F05AF9C4
:10243000401BA042FAD370BD7800002010B5204C9C
:1024400010281AD0202824D0082830D0012813D1F1
:102450000CF0A0FA01280FD004F1100160690BF014
:10246000FFFD2069002807D016494FF08050086012
:10247000BFF34F8FBFF36F8F10BD0C2007F070F9C3
:10248000A07840F00100A070E07840F00100E0701A
:1024900006E00B2007F064F9607840F001006070FE
:1024A00060790028E8D0BDE8104007F07BBA0D2025
:1024B00007F056F9207940F00100207110BD0000AE
:1024C0000402002004ED00E0044910B50A6802424D
:1024D00002D00860FFF7B2FF10BD0000143C0140BD
:1024E0002DE9F84FDFF8BCA10022012503264FF0AB
:1024F0000F090AF1040BAAF1040E00BF0B6805FADC
:1025000002F42340A34270D10F7907F00307012F93
:1025100001D0022F16D187684FEA420806FA08FC5C
:1025200027EA0C07D1F80CC00CFA08FC4CEA070C9F
:10253000C0F808C04768A7430C79C4F3001494405E
:102540003C4344600C79E443A4070AD0C4684FEAD2
:10255000420C06FA0CF7BC438F6807FA0CF72743C6
:10256000C7600C7904F00304022C12D1D40800EBEC
:10257000840CDCF820405707FF0E09FA07F824EA1C
:102580000804D1F8108008FA07F848EA0408CCF8E3
:10259000208004684FEA420C06FA0CF7BC430F791E
:1025A00007F0030707FA0CF7274307604C6814F499
:1025B000403F70D03C4C276847F480472760246830
:1025C00022F0030704F480440094384C07EB040C19
:1025D000DCF8084897074FEA177809FA08F7BC4370
:1025E000334FB84202D1002724E054E0314FB842C3
:1025F00001D101271EE0304FB84201D1022719E076
:102600002E4FB84201D1032714E02D4FB84201D11B
:1026100004270FE02B4FB84201D105270AE02A4FCB
:10262000B84201D1062705E0284FB84201D107275B
:1026300000E0082707FA08F72743CCF80878DAF80B
:1026400000405746D1F804C09C435FEACC2C00D52B
:102650001C433C60DBF800405F46D1F804C09C435B
:102660005FEA8C2C00D51C433C60DEF800407746C6
:10267000D1F804C09C435FEA8C3C00D51C433C600D
:10268000084F083F3C68D1F804C09C435FEACC3C4B
:1026900000D51C433C60521C102AFFF42FAFBDE84C
:1026A000F88F0000083C01404438024000300140EF
:1026B000000002400004024000080240000C0240FA
:1026C000001002400014024000180240001C0240AA
:1026D0000069084000D0012070470AB1816170474D
:1026E0000904FBE70148806870470000780000207B
:1026F00070B5040025D094F83D00002520B984F879
:102700003C50204600F04CFA242084F83D0020681C
:10271000016821F0010101602068016841F4004175
:1027200001602068016821F40041016001F0FAF9BC
:102730004D4A6168914201D84C4900E04C498842B9
:1027400001D2012070BD4B492368B0FBF1F15E68F6
:1027500026F03F060E435E606368934206D94FF44D
:10276000967359434FF47A73B1FBF3F12368491C14
:102770001E6A26F03F06314319626168914210D803
:102780004900401EB0FBF1F2521CC2F30B02042AB6
:1027900001D2042022E0B0FBF1F0401CC0F30B009A
:1027A0001CE0A268F2B301EBC10303EB0116431E68
:1027B000B3FBF6F35B1C43F480431B0549D092B393
:1027C00001EBC10202EB0111401EB0FBF1F0401C15
:1027D000C0F30B0040F4804040F400402168CA6917
:1027E0004CF6FF739A431043C861D4E907100143C4
:1027F0002068026822F0C00211430160D4E903019D
:1028000001432068826848F2FF339A431143816094
:10281000D4E9050108432168CA6822F0FF02104389
:10282000C86001E00EE016E02068016841F0010197
:1028300001602564202084F83D00256384F83E5023
:10284000002070BD01EB4106431EB3FBF6F35B1C99
:10285000B3E70120C2E701EB4101401EB0FBF1F0FC
:10286000401CC0F30B00B7E7A086010080841E0067
:1028700000093D0040420F002DE9FF4F83B09A460A
:10288000DDE9119793460446DDF84080FFF72AFF03
:10289000054694F83D00202870D119230122714982
:1028A0002046009502F078FB0028F5D194F83C0012
:1028B000012863D0012084F83C0020680168C90722
:1028C00003D1016841F0010101602068016821F431
:1028D00000610160222084F83D00402084F83E0021
:1028E00000262664C4F82480A4F82A90608D2085F0
:1028F0005D48E062CDE9007553465A46204604998A
:1029000002F052FA00287CD1208DD0B1012821D0CC
:102910000228206824D0416980690090208D032816
:1029200069D801282BD0514902283B464FF00002BC
:10293000009559D08846204602F02EFB002860D131
:102940003CE02068416981690091016841F40071AF
:10295000016077E02068016821F480610160F0E7A0
:10296000016821F4806101602068016841F4006120
:102970000160206841698069009063E06FE02A4649
:102980003946204602F087FB98BB20680069616ADF
:1029900008704EE02068016841F400710160206811
:1029A0000069616A0870606A401C6062218D491E7E
:1029B0002185618D491E6185216838E020680168A4
:1029C00021F48061016020680069616A0870606AB2
:1029D000401C6062208D401E2085608D401E6085F9
:1029E0003B46002241460095204602F0D5FA00B948
:1029F000D0E706E0FFE72A463946204602F04BFBC7
:102A000018B1012007B0BDE8F08F20680069616A45
:102A10000870606A401C6062218D491E2185618DAD
:102A2000491E618521684A69D24352070AD409695F
:102A30000170606A401C6062208D401E2085608DA0
:102A4000401E6085208D00287FF468AF202084F828
:102A50003D0084F83E6084F83C600020D2E702200C
:102A6000D0E70000020010000000FFFF040001009A
:102A70002DE9FF4F83B09A46DDE91197934604464E
:102A8000DDF84080FFF72EFE054694F83D00202833
:102A90007FD11923012240492046009502F07CFA9B
:102AA000002876D194F83C00012872D0012084F8E7
:102AB0003C0020680168C90703D1016841F00101A9
:102AC00001602068016821F400610160212084F820
:102AD0003D00402084F83E0000262664C4F824808F
:102AE000A4F82A90608D20852C48E062CDE900751D
:102AF00053465A462046049902F0D4F970B930E0A2
:102B00002A463946204602F0F9FA58B1206C0428CA
:102B100004D12068016841F400710160012007B010
:102B2000BDE8F08F606A216800780861606A401C27
:102B30006062218D491E89B22185628D521E628597
:102B400022685369DB435B070BD469B100781061DD
:102B5000606A401C6062208D401E2085608D401E92
:102B60006085208D0028CBD12A463946204602F0C8
:102B7000EDF90028CAD154F83D0B016841F4007109
:102B80000160202004F81E09E67766770020C6E77A
:102B9000FFE70220C3E70000020010000000FFFF73
:102BA0002DE9F04387B0074614216846FDF74FFD35
:102BB000484C474B3A6800264648122103251034FA
:102BC0004FF001084FF004099A4218D1026842F010
:102BD00002020260006800F00200059028028DE801
:102BE0000301CDE9035969463B48FFF779FC2068AA
:102BF00040F400102060206800F4001065E0374BBE
:102C00009A4234D1026842F0200202600068CDE9A5
:102C1000005100F02000CDE90490CDE9028569461D
:102C20002F48FFF75DFC206840F48000206020689A
:102C30002D4C00F4800005902A4820604FF0606021
:102C400060604020C4E902060001C4E90406C00136
:102C5000A661C4E9076020466662FFF773FB08B10E
:102C6000FEF797FC7C63A76307B0BDE8F0831F4BBA
:102C70009A42F9D1026842F004020260026802F04E
:102C800004020592026842F00102026000680E46EA
:102C900000F00100059058158DE84101CDE9035978
:102CA00069461348FFF71CFC4FF480708DE8410122
:102CB000CDE9035969460F48FFF712FC206840F43C
:102CC00000002060206800F400000590CCE70000C0
:102CD00000540040303802400004024000580040D8
:102CE00000140240B8600240940B0020005C0040D9
:102CF0000008024000000240024881680278114446
:102D000081607047780000200B4810B5016841F4DD
:102D100000710160016841F480610160016841F463
:102D200080710160032000F073F80F2000F006F8B6
:102D300000F024F8002010BD003C024070B50D4D9D
:102D400004464FF47A712878B1FBF0F00A4909681B
:102D5000B1FBF0F001F08FFB48B9102C07D2002234
:102D60002146501E00F034F800206C6070BD012038
:102D700070BD000078000020840000200C4882B064
:102D8000016841F480410160006800F480400090D7
:102D90000748001F016841F080510160006800226F
:102DA00000F0805000900F21901E02B000F010B88B
:102DB00044380240002809DB00F01F020121914045
:102DC0004009800000F1E020C0F8001170470000C9
:102DD000F0B40E4B1B680C46C3F30223C3F1070586
:102DE000042D00D90425191D072901D2002300E074
:102DF000DB1E012606FA05F1491E214099409E403E
:102E0000761E16403143F0BC08F051B80CED00E0DE
:102E1000064900F0070208684FF6FF03184040EA31
:102E20000220034A10430860704700000CED00E0E8
:102E30000000FA0570470068416200207047F0B555
:102E40000368586A39B19C6A4FF4827600EB1444E7
:102E500000204D1E0AE040EA024098620FE006EBB7
:102E60008007DF59401C04EB1744C0B2A842F6D3D8
:102E700044EA02404FF4807202EB81015850002076
:102E8000F0BDD0F8080505F02DBB01EBC10200EB49
:102E90008202D0F80805D26C05F082BA01EBC102BB
:102EA00000EB8202D0F80805D2F88C2205F0D3BAE4
:102EB000D0F8080505F018BB0A0601F00F0101EB78
:102EC000C10100EB810101D53C3101E001F51F7129
:102ED000006806F04DBA70B504460B0601F00F000D
:102EE00000EBC00104EB81014FF001024FF000053F
:102EF00003D581F83D203C3103E081F87D5201F596
:102F00001F71087094F8BC04012808D084F8BC2410
:102F1000206805F0E7FE84F8BC54002070BD022054
:102F200070BD70B5044601F00F006268904201D98F
:102F3000012070BD0B0601F00F0101EBC10104EB94
:102F400081014FF001024FF0000503D581F83D20CB
:102F50003C3103E081F87D5201F51F718D700870DE
:102F600094F8BC04012808D084F8BC24206806F03A
:102F7000B5F884F8BC54002070BD022070BD01F08B
:102F80000F0101EBC10100EB8100D0F89C027047FA
:102F90002DE9F04104460F0601F00F0000EBC001DF
:102FA00004EB81014FF001064FF0000503D581F8D5
:102FB0003D603C3103E081F87D5201F51F710870DE
:102FC000CA600B714A7802B10881022B00D14D71A1
:102FD00094F8BC04012809D084F8BC64206805F08A
:102FE000D9FD284684F8BC54BDE8F0810220FBE7F7
:102FF00070B50C4601F00F0505EBC50100EB810132
:10300000C1F89432C1F88C220023C1F89C3281F8B7
:103010007D3281F87C52036901F51F71012B00D1CB
:103020004A612207027C006803D006F0AFF8002056
:1030300070BD05F099FFFAE770B504460D4601F042
:103040000F006168884201D9012070BD29064FF048
:1030500000064FF0010207D500EBC00104EB81012F
:1030600081F83D203C3107E005EBC50104EB81010F
:1030700081F87D6201F51F718A70087094F8BC04B4
:10308000012807D084F8BC24206806F053F82807EC
:1030900002D007E0022070BD217C04F2C442206807
:1030A00005F0F0FF84F8BC64002070BD70B50C46DC
:1030B00001F00F0505EBC50100EB81014B65CA640A
:1030C0000023CB65012381F83D3001F83C5F0369A3
:1030D000012B00D14A612207027C006803D006F070
:1030E00055F8002070BD05F03FFFFAE72DE9FC5FC1
:1030F00005680446284606F0DCF900287DD12068E2
:1031000006F003FA002878D0D5F80808C0F30D209F
:10311000C4F8FC04206806F0F8F9800704D520689C
:10312000416901F002014161206806F0EEF9C10633
:1031300004F2C440009034D52068816921F0100168
:1031400081612F6A07F00F0000EBC00004EB8006DE
:10315000C7F3434006F51F76022802D0062811D097
:103160001AE047F6F070074216D0C7F30A12174666
:103170002846316906F0CDF9306938443061306A4B
:10318000384408E008222846009906F0C2F9306A5F
:10319000C7F30A11084430622068816941F01001C8
:1031A0008161206806F0B1F900034FF0080B4FF081
:1031B000000A4FF001097CD50026206806F084F94A
:1031C000074674E0F80770D0F1B2206806F095F970
:1031D0008046C00707D005EB4611C1F8089B314671
:1031E000204602F055FD5FEA087024D505EB461134
:1031F000C1F808BB2068016C00E025E200EB461036
:103200000191D0F8082BFC4B994205D9110403D544
:103210004FF40041C0F8081B204600F005FBF649BA
:103220000198884207D92069012804D1206801212A
:10323000009A05F027FF5FEAC86004D505EB461148
:103240001020C1F8080B5FEA88701DD56869000678
:1032500005D5D5F8040840F48061C5F8041806EBDC
:10326000C60004EB800090F87F1200F51F70012962
:1032700005D180F803A0F1B2204600F0EBF905EB90
:1032800046110220C1F8080B5FEA886004D505EBFF
:1032900046102021C0F8081B5FEA884005D505EBE1
:1032A00046104FF40051C0F8081B7F08761C002F11
:1032B00088D1206806F029F940036FD5206806F010
:1032C000FCF80746002667E0F80763D0F1B22068F3
:1032D00006F001F98046C00723D006F00F0209FA74
:1032E00002F0D5F834288243C5F8342805EB46109F
:1032F000C0F80899206901280FD106EBC60004EB3D
:103300008000D0E912211144C16436B9606D20B942
:1033100020680121009A05F0B5FEF1B22046FFF7C2
:10332000B4FD5FEA087003D505EB4611C1F808B992
:103330005FEAC86004D505EB46111020C1F8080902
:103340005FEA486004D505EB46104021C0F8081933
:103350005FEA887017D53146284606F07DF806EBFF
:10336000C60004EB800090F83F103C30012905D1E5
:1033700080F803A0F1B2204600F068F905EB461191
:103380000220C1F808095FEA086003D531462046EB
:1033900002F0E4FC7F08761C002F95D1206806F02F
:1033A000B4F8002811DAD5F8040820F00101C5F8B6
:1033B000041894F8F40401282BD0204600F018FAE1
:1033C0002068416901F000414161206806F09DF8E4
:1033D00000050BD5D5F80808C00702D0204600F03C
:1033E0004BFA2068416901F400614161206806F0F0
:1033F0008CF8C00466D5D5F8040820F00100C5F8A3
:1034000004081021206806F027F800214FF67F32CB
:103410001FE084F8F4A400212046FFF70BFDCFE75E
:1034200005EB4110C0F80829D0F8003923F4001347
:10343000C0F80039C0F8082BD0F8003B23F4001383
:10344000C0F8003BD0F8003B43F00063C0F8003BFD
:10345000491C60688842E3D8D5F81C0840F0011187
:10346000C5F81C18206B002828460DD0D0F8840819
:1034700040F00B01C5F88418D5F8440840F00B0162
:103480002846C5F844180DE0D0F8140842F22B0184
:103490000843C5F81408D5F8100840F00B01284679
:1034A000C5F81018D0F8000820F4FE61C5F800181F
:1034B000217C2068009A05F0E5FD2068416901F44F
:1034C00080514161206806F020F8800415D52068FD
:1034D00005F0A0FB206805F0DFFFE06000F01CFBBA
:1034E0000146227B206806F073F8204600F06AF956
:1034F0002068416901F400514161206806F005F837
:10350000000707D5204600F077F92068416901F0EF
:1035100008014161206805F0F8FF000616D5A8698A
:1035200020F08000A86101260DE000BF06EBC60078
:1035300004EB800090F87F02012803D1F1B220460D
:10354000FFF7BAFC761C6068B042EFD8206805F03F
:10355000DCFFC00221D501264F4616E005EB4610E0
:10356000D0F8001906EBC60004EB800090F840206C
:10357000012A09D1002907DA80F83F70F0B240F043
:1035800080012046FFF798FC761C6068B042E5D8C1
:103590002068416901F480114161206805F0B5FFA0
:1035A000800234D501204B4629E000BF05EB4011D5
:1035B000D1F8001B00EBC00204EB820696F88022D3
:1035C000012A1BD1002919DA94F8FC2401F4803176
:1035D00002F00102914211D186F87F32A96941F0CF
:1035E0008002AA616969090608D4D5F8040840F484
:1035F0000070C5F8040805E00A30544F401C6168AB
:103600008142D3D82068416901F4001141612068EA
:1036100005F07BFF400007D52046FFF732FC20680D
:10362000416901F080414161206805F06EFF40076B
:103630000AD520684568680702D52046FFF738FCA0
:103640002068416829434160BDE8FC9FD0F8080527
:1036500004F09EBFD0F8080504F0AEBF2DE9F0419C
:103660008AB0040005D094F8BD042668002520B176
:1036700008E001200AB0BDE8F08184F8BC5420467F
:1036800000F05EF8032084F8BD04F06BC00500D4A0
:103690002561206805F062FC04F1100128228846AB
:1036A0006846FCF778FF94E80F0005F0C1FA02269F
:1036B000C8BB0021206805F04BFF002001270EE069
:1036C00000EBC00104EB810181F83D7001F83C0F73
:1036D00008810D71CD600D61401CC0B28D616168C3
:1036E0008142EDD8002011E000EBC00104EB810124
:1036F00081F87D5281F87C0281F88052C1F88852AD
:10370000C1F88C52401CC0B2C1F894526168814229
:10371000EAD8282241466846FCF73DFF94E80F00AE
:1037200005F062FB10B184F8BD64A2E784F838505C
:1037300084F8BD74206805F049FB00209AE700007A
:1037400010B586B0044614216846FCF780FF206857
:10375000B0F1A04F2FD119480021026842F00102B8
:103760000260006800F0010005904FF4C050009026
:103770000220CDE90101032003900A20049069464C
:103780000F48FEF7ADFE0D48001D016841F08001B5
:1037900001600A481430016841F48041016000680A
:1037A000002200F48040059005214320FFF710FB24
:1037B0004320FFF7FFFA06B010BD0000303802408A
:1037C0000000024070B50446C068012570B10228AF
:1037D00001D0FDF7DEFE2946D4F8080504F05AFFB3
:1037E000D4F80805BDE8704004F00FBF0025F2E7EB
:1037F000D0F8080504F037BFD0F8080504F03DBF45
:1038000010B5044690F8BC0401280BD0012084F8C0
:10381000BC0484F83810206805F0C8FE002084F845
:10382000BC0410BD022010BDD0F8082500F2C44130
:10383000104604F03BBF10B50446006894F8BC1471
:10384000012906D0012184F8BC14A16A012902D003
:1038500008E0022010BDA169012903D0816B41F469
:1038600080318163206805F0D2FD206805F0A0FA60
:10387000002084F8BC0410BD10B50446D0F808053B
:1038800004F056FF2068D0F8001E41F00101C0F896
:10389000001E206A002804D00248016841F0060199
:1038A000016010BD10ED00E02DE9F8430546006809
:1038B0004FF00109C1074FF0000601D1400727D59D
:1038C000DFF80C81C8F86860FEF70CFF0746414C32
:1038D00005E000BFFEF706FFC01B022857D820688E
:1038E0000001F7D468688101287A41EA00703949FB
:1038F00084310860C8F86890FEF7F4FE074604E0DB
:10390000FEF7F0FEC01B022841D820680001F7D561
:103910002878800752D52F484030016841F0805107
:10392000016000682C4C00F080500090206840F44A
:1039300080702060FEF7D6FE074604E0FEF7D2FE58
:10394000C01B022823D82068C005F7D5214C70344D
:10395000206810F4407020D0A98901F440718142A0
:103960001BD020681D4920F44070C1F800900E6003
:1039700020602068C00710D0FEF7B4FE064641F272
:10398000883707E0FEF7AEFE801BB84202D903205D
:10399000BDE8F88320688007F4D5E9680D48C1F3D5
:1039A00001220830032A0BD0016821F4F8110160CC
:1039B0002068A989C1F30B01084320600020E7E7D4
:1039C0000268074B22F4F81219400A430260EFE73D
:1039D000000047420038024000700040400E47425D
:1039E000FFFCFF0F2DE9F0470E46050065D0DFF81C
:1039F0001481D8F80000F7B200F00700B04207D2F7
:103A000088F80070D8F8000000F00700B04254D1E8
:103A100028683D4C810712D5400703D5206840F443
:103A2000E05020602878000703D5206840F460400B
:103A300020602068A96820F0F00008432060287802
:103A4000C0072DD0304968680839012812D00228F3
:103A500013D0032811D00968890700292DDA2168BD
:103A600021F0030101432160FEF73CFE814641F253
:103A7000883A0EE009688903EFE709688901ECE7F5
:103A8000FEF730FEA0EB0901514502D90320BDE845
:103A9000F0872068696800F00C00B0EB810FEFD16F
:103AA000D8F80010404601F00701B14207D907706D
:103AB000006800F00700B04201D00120E7E7287855
:103AC000400705D52068E96820F4E05008432060ED
:103AD0002878000706D52068296920F4604040EA6C
:103AE000C100206000F03EF82168084AC1F30311CC
:103AF000515CC8400649086006480068FFF71EF997
:103B00000020C4E7003C024008380240BC04010821
:103B1000840000207C0000200148006870470000FD
:103B2000840000200448054900680968044AC1F37C
:103B30008221515CC8407047840000200838024050
:103B4000CC0401080448054900680968044AC1F327
:103B50004231515CC8407047840000200838024060
:103B6000CC040108154810B5006810F00C02144888
:103B700013D01449042A0FD0082A0ED10F4C241F49
:103B80002268236802F03F025B0207D52068C0F379
:103B90008810A0FB010106E0084610BD2168C1F3B2
:103BA0008811A1FB00010023FCF71AFC2168C1F376
:103BB0000141491C4900B0FBF1F010BD083802403A
:103BC0000024F400001BB7002DE9F84F04006ED06C
:103BD0002078DFF84C93C007A9F104054AD009F119
:103BE00004000168C1F38101012908D00068C0F315
:103BF000810002280AD1D9F80000400206D52868C1
:103C0000800337D560680028E1D033E06068B0F504
:103C1000803F10D0B0F5A02F286810D020F480305D
:103C20002860286820F4802028606068A8B1FEF72A
:103C300059FD06460DE0286840F48030F4E740F472
:103C400080202860F7E700BFFEF74CFD801B64284A
:103C500073D828688003F7D50CE0FEF743FD0646CD
:103C600005E000BFFEF73EFD801B6428F0D8286801
:103C70008003F7D42078DFF8AC8280074FF0000A89
:103C80003ED5A748001D016811F00C0F08D0006850
:103C9000C0F3810002280BD1D9F80000400207D4FC
:103CA0002868800716D5E068012800D112E033E1CA
:103CB000E068B8B10120C8F80000FEF713FD064621
:103CC00005E000BFFEF70EFD801B0228C0D8286863
:103CD0008007F7D52868216920F0F80040EAC10084
:103CE00028600DE0C8F800A0FEF7FCFC064604E0E2
:103CF000FEF7F8FC801B02281FD828688007F7D43D
:103D00002078000722D5864F87486169703771B1E6
:103D100001210160FEF7E6FC064604E0FEF7E2FC46
:103D2000801B022809D838688007F7D50EE0C0F854
:103D300000A0FEF7D7FC064605E082E0FEF7D2FCC5
:103D4000801B02287DD838688007F7D42078400788
:103D500068D5DFF8CCB100270BF13C0BDBF8000095
:103D6000C0000BD4DBF8001041F08051CBF80010FC
:103D7000DBF80000012700F0805000906B4E3068A7
:103D8000C00510D4306840F480703060FEF7AAFCA3
:103D9000009005E0FEF7A6FC0099401A022850D8D2
:103DA0003068C005F6D55E4EA0686C3601280FD08D
:103DB0000528306810D020F001003060306820F015
:103DC00004003060A068B8B1FEF78CFC00900FE0F2
:103DD000306840F00100F4E740F004003060F7E79D
:103DE000FEF780FC0099411A41F28830814266D882
:103DF00030688007F4D50EE0FEF774FC009007E011
:103E0000FEF770FC0099411A41F28830814256D881
:103E100030688007F4D42FB1DBF8001021F0805116
:103E2000CBF80010A069C8B33D49091D0968C1F36A
:103E3000810102294AD00228504607D0C8F8600004
:103E400000E03CE0FEF74EFC04463BE04746C8F885
:103E50006000FEF747FC064605E000BFFEF742FCA7
:103E6000801B02282BD828688001F7D4D4E90701E9
:103E70000843A16A2E4A490802EB0141626A41EAFD
:103E80008211084394F82C1040EA0161C9F800102F
:103E900001203866FEF726FC044606E03EE000BF3F
:103EA000FEF720FC001B022809D828688001F7D5FE
:103EB00034E000BFFEF716FC001B022802D90320E5
:103EC000BDE8F88F28688001F4D427E00128F7D0F6
:103ED000D9F80000E26900F4800191421CD1226A05
:103EE00000F03F01914217D147F6C071626A01406C
:103EF000B1EB821F10D1A26A4FF0FF3300F44031C2
:103F000003EB5202B1EB024F06D194F82C1000F0F3
:103F10007060B0EB016F01D00120D1E70020CFE746
:103F20000438024000004742800E474200700040C3
:103F30000000FFFF70B5040003D06079002510B1C8
:103F400005E0012070BD2571204600F00DF802202B
:103F500060712068016841F0040101600120607116
:103F6000A560002070BD000008B5006806498842C1
:103F700008D10648016841F040010160006800F086
:103F80004000009008BD0000000806503438024090
:103F900010B5040002D0607F10B106E0012010BD12
:103FA00000202077204600F039F802206077216851
:103FB000CA204862216853204862204601F078FFF9
:103FC00030BB20688168144A11408160216888688C
:103FD00062681043D4E904231A43104388602168BF
:103FE000E068086120680169228941EA02410161B3
:103FF000204601F081FF58B921680A6C22F4802222
:104000000A6421680A6CA3691A430A640121617772
:104010002268FF21516210BDBFFF8FFF1FB5002135
:1040200000910191029103910068084988420CD1E6
:1040300002200090064803906846FFF735FC08B15F
:10404000FDF7A7FA0349012008601FBD00280040C2
:1040500000031E003C0E474270B504460068C1686C
:1040600021F0A001C160FEF73DFB05464FF47A76D2
:1040700007E000BFFEF736FB401BB04201D903202A
:1040800070BD2068C0688006F4D5002070BD70B592
:10409000040009D0606A002540B125616561A56210
:1040A00094F8510040B10CE0012070BD6068B0F59B
:1040B000827FF4D0E561F2E784F85050204600F0AA
:1040C00045F8022084F851002068016821F0400181
:1040D0000160A088218900F4827001F40441084342
:1040E000A18901F400610843217C01F00201084329
:1040F000217D01F001010843218B01F40071084387
:10410000217F01F03801084394F8201001F080016C
:104110000843218D01F40051084321680860A0691B
:10412000042101EA104094F8241001F01001084322
:10413000216848602068C16921F40061C16165653A
:10414000012084F85100002070BD00002DE9F047E7
:1041500086B0054614216846FCF779FADFF818C1E5
:10416000296846480226012703220523DFF810812B
:104170000024614560D141491431D1F800C04CF4AC
:10418000805CC1F800C0096801F4805105910168A4
:1041900041F002010160016801F00201059101682E
:1041A00041F0010101600068914600F001000590B6
:1041B00018209A468DE8C10669464046FEF790F9F8
:1041C00080208DE8C10669462E48FEF789F92F4EFA
:1041D0002D484FF0C0673060C6E901744FF4806825
:1041E000C6E9034874617812B461C6E907403046F5
:1041F0007462FEF7A7F808B1FDF7CBF9EE64B5637A
:10420000224E214860361830E6E802074020A6E832
:104210001101C00246F81449B461C6E907401B48C1
:1042200074626030FEF78EF808B1FDF7B2F9AE6443
:10423000B56306B0BDE8F087154CA142F9D10F492E
:1042400010310C6844F480440C60096801F480412A
:104250000591016841F0020101600068694600F0C3
:10426000020005904FF460408DE8C1004046CDE962
:104270000323FEF735F9DCE7003001403038024017
:10428000000402400000024040640240D40C0020C0
:10429000003800402DE9F84F044690F85000002700
:1042A0000A9E1D4692468B464FF0010901280ED00A
:1042B000012084F85000FEF715FA804694F851006A
:1042C000616801280CD0B1F5827F07D102E002209D
:1042D000BDE8F88FA16809B9042801D00227C2E01F
:1042E000BBF1000F27D0BAF1000F24D01DB394F812
:1042F0005100042802D0052084F851000020606598
:10430000C4F838A0E587A587C4F830B0E586A5864F
:104310002064606420680168490603D4016841F0A4
:1043200040010160E068B0F5006F606805D0E8B357
:10433000012D46D07FE0012795E008B1012D39D14C
:10434000206B21680088C860206B801C2063E08E91
:10435000401EE0862EE02068816889070FD5E18E37
:1043600069B1B9F1010F0AD1216B0988C160206BD5
:10437000801C2063E08E401EE0864FF0000920681C
:104380008168C9070CD0E18F51B1C068A16B08806A
:10439000A06B801CA063E08F401EE0874FF00109F6
:1043A000FEF7A0F9A0EB0800B04200E009E001D35D
:1043B000701C50D1E08E0028CDD1E08F0028CAD1EA
:1043C0003FE0206B216800780873206B401C20635D
:1043D000E08E401EE0862EE02068816889070FD5B8
:1043E000E18E69B1B9F1010F0AD1216B097801732E
:1043F000206B401C2063E08E401EE0864FF00009D9
:1044000020688168C9070CD0E18F51B1C068A16BE9
:104410000870A06B401CA063E08F401EE0874FF047
:104420000109FEF75FF9A0EB0800B04202D3701C4F
:1044300001D010E07EB1E08E0028CDD1E08F0028C1
:10444000CAD142463146204602F01EFF28B101275C
:104450002020606507E0032705E0A06818B9206800
:10446000C16880680090012084F85100002084F821
:10447000500038462CE710B5401EB0F1807F01D3C4
:10448000012010BD4FF0E02460610F21601706F09D
:104490000EFD0020A06107202061002010BD10B596
:1044A00090F83C20012A22D0012280F83C20CA68E2
:1044B0008C6822F4407222434C6822F480622243CA
:1044C0000C6822F4006222430C6922F480522243D9
:1044D0004C6922F400522243C969002322F480422D
:1044E0000A4301684A6480F83C30002010BD022075
:1044F00010BD000070B590F83C20012A32D0012494
:1045000080F83C40022280F83D2003685A689D688C
:1045100022F070060A6832435A60134B02689A42CE
:1045200014D0B2F1804F11D0104B9A420ED0104BE4
:104530009A420BD00F4B9A4208D00F4B9A4205D0AB
:104540000E4B9A4202D00E4B9A4204D1496825F094
:1045500080031943916080F83D40002180F83C10B1
:10456000084670BD022070BD0000014000040040FC
:1045700000080040000C00400004014000400140E1
:104580000018004010B5040003D094F83D0010B1AD
:1045900007E0012010BD002084F83C00204600F018
:1045A0001FF8022084F83D00211D206802F05AFF08
:1045B000012084F8460084F83E0084F83F0084F827
:1045C000400084F8410084F8420084F8430084F8F5
:1045D000440084F8450084F83D00002010BD000030
:1045E00008B52349026823488A4207D1016841F08F
:1045F00001010160006800F001000AE01D491E4B46
:10460000091F9A4207D1086840F002000860086854
:104610001FE0009008BD194B9A4207D1086840F08E
:1046200004000860086800F00400F2E7144B9A42A6
:1046300007D1086840F008000860086800F008002A
:10464000E7E710498A4207D1016841F002010160A1
:10465000006800F00200DCE70B498A42DAD1016809
:1046600041F400310160006800F40030D1E700003F
:1046700000000140443802400004004000080040AF
:10468000000C0040000401400044014070B50446A5
:1046900090F83C000025012817D0012684F83C60E2
:1046A000022084F83D002068826822F0770222F41C
:1046B0007F4282600868502838D00DDC20284FD017
:1046C00005DC90B3102811D14AE0022070BD3028DB
:1046D00046D040280AD13BE060282FD070280DD06A
:1046E000B0F5805F03D0B0F5005F12D0012584F8EB
:1046F0003D60002084F83C00284670BDCB68D1E9BD
:104700000121206802F012FF2068816841F07701E2
:1047100009E0CB68D1E90121206802F007FF206899
:10472000816841F480418160E1E719E0CA68496825
:10473000206802F0CFFF5021206806E0CA6849686F
:10474000206802F0D8FF6021206802F0F9FECEE771
:10475000CA684968206802F0BDFF40212068F4E77C
:10476000226801461046F0E72DE9F04186B0044684
:1047700014216846FBF76BFF474A2168474802242B
:104780000125914210D1016841F0100101600068DB
:10479000694600F0100005904FF4D4408DE83100D8
:1047A0003F48CDE9034513E03E4ADFF8FC809142E3
:1047B00013D1016841F0040101600068694600F00E
:1047C0000400059090158DE8310003944046049450
:1047D000FDF786FE06B0BDE8F081344A032691421B
:1047E0000ED1016841F0080101600068694600F0DF
:1047F0000800059010148DE871002D480494E7E737
:104800002C4A914210D1016841F08001016000689A
:10481000694600F0800005904FF4E0508DE83100CB
:10482000039425480494D3E7244A4027914220D199
:10483000016841F480710160016801F480710591A3
:10484000016841F00401016000680097CDE901456D
:1048500000F00400CDE90460694603941848FDF7B0
:104860003FFE0097CDE90145CDE903466946404644
:10487000AEE7144A9142ADD1016841F020010160D8
:1048800000680097CDE9014500F02000CDE9046003
:10489000694603940C489BE7000001403038024011
:1048A00000100240000400400008024000080040E0
:1048B000000C0240000C0040001C024000040140BB
:1048C00000200240004401400014024070B504463C
:1048D00090F83C0000260D4601280FD0012084F8F6
:1048E0003C006AB1042A1DD0082A2FD00C2A3FD0E0
:1048F0000126002084F83C00304670BD022070BDC7
:10490000206802F025FE2068816941F0080181617C
:104910002068816921F004018161206881692A6928
:10492000114311E0206802F043FE2068816941F4E0
:10493000006181612068816921F480618161206862
:1049400081692A6941EA02218161D2E7206802F087
:1049500065FE2068C16941F00801C1612068C16934
:1049600021F00401C1612068C1692A69114311E085
:10497000206802F087FE2068C16941F40061C161CE
:104980002068C16921F48061C1612068C1692A6918
:1049900041EA0221C161ACE710B5040003D094F8EC
:1049A0003D0010B107E0012010BD002084F83C005C
:1049B000204600F01EF8022084F83D00211D2068EA
:1049C00002F050FD012084F8460084F83E0084F88F
:1049D0003F0084F8400084F8410084F8420084F8E5
:1049E000430084F8440084F8450084F83D0000202A
:1049F00010BD704770B5040004D094F83D00002548
:104A000010B106E0012070BD84F83C50204600F053
:104A100023F8242084F83D002068C16821F4005167
:104A2000C160204602F0CEFE2068016921F4904169
:104A300001612068416921F02A0141612068C16853
:104A400041F40051C1602564202084F83D0084F8C1
:104A50003E00002070BD00002DE9F04F87B00446F5
:104A600014216846FBF7F3FD8B48DFF828821438E1
:104A7000D4F800C0884A0226032107230025071521
:104A80004FF0006A4FF4403BC44566D1D2F800C0F5
:104A90004CF0100CC2F800C0126802F0100205922F
:104AA000026842F002020260026802F0020205920D
:104AB000026842F0010202600068884600F00100CE
:104AC00005908020CDE900060DF1080C99468CE890
:104AD000200369467148FDF703FD3002CDE9000669
:104AE0000DF1080C69468CE820036D48FDF7F8FCD1
:104AF0006D4E6C48B946E6E8020A4020A6E821025D
:104B0000D04646F814595F46B561C6E9075B66486A
:104B10007562FDF717FC08B1FCF73BFD6663B463F3
:104B2000614E6048603630383060C6E90185C6E9BC
:104B300003597561B561C6E9075730467562FDF7DF
:104B400001FC08B1FCF725FDA66300220521252004
:104B5000B463FEF73DF925203FE0DFF85081C445FE
:104B600040D14D4A121FD2F800C04CF4802CC2F83C
:104B700000C0126802F480220592026842F004022A
:104B800002600068029500F004000590CDE903136F
:104B90004FF44060CDE9000669464548FDF7A0FCAA
:104BA000414E4448C0363060C6E901A5C6E9035706
:104BB00075614FF40030B561C6E907503046756243
:104BC000FDF7C0FB08B1FCF7E4FCA663002204215A
:104BD0002720B463FEF7FCF82720FEF7EBF807B0B8
:104BE000BDE8F08F344B9C45F9D1136843F02003A6
:104BF0001360126802F020020592026842F040023F
:104C000002600068029500F0400005904FF4844077
:104C1000CDE900060820CDE9031069462748FDF7D5
:104C20005FFC2048264E90384FF020693060C6E97E
:104C30000195C6E903577561B561C6E9075BB846DA
:104C40005F4630467562FDF77DFB08B1FCF7A1FCBD
:104C5000A663B4631A4E1348603E1838E6E80209AA
:104C60004020A6E82101164846F814596038B5617D
:104C7000C6E907577562FDF765FB08B1FCF789FCCB
:104C80006663002205214720B463FEF7A1F84720A0
:104C9000A3E7000000100140443802400004024035
:104CA00000000240B864024010100020004800409C
:104CB0000008024028600240001401400018024031
:104CC000901100202DE9F843044690F83D001F465E
:104CD00016460D4620284CD1C5B1BEB194F83C0013
:104CE000012846D0012084F83C004FF00008C4F8A9
:104CF0004080212084F83D00FDF7F4FCA684814625
:104D0000E684A068B0F5805F03D004E00120BDE830
:104D1000F883206928B12E465FF0000584F83C80B6
:104D20000EE00026FAE78021204602F0D1FDA0B96E
:104D3000AEB116F8010B21684860E08C401EE0849B
:104D4000E08C4B464FF0000200970028EBD14FF06B
:104D50004001204602F0BCFD30B10320D7E735F812
:104D6000020BC0F30800E6E7202084F83D00002095
:104D7000CDE70220CBE7FEE701684A69D24352053E
:104D80000FD46FF480624A61002140F8301F202266
:104D900042738173026942F00402026101730120CF
:104DA00070470020704700002DE9F84F0446006866
:104DB00089460B9D01689846174641F48061016061
:104DC0002068016841F48071016000954FF0011B7B
:104DD0000022594620460A9B00F0DEF84FF4007A84
:104DE00040B120680068C00501D5C4F840A0032088
:104DF000BDE8F88F216809F0FE0008612B462849BC
:104E000020460A9A00F0FCF8F0BB206841698069EE
:104E100000902A4620460A9900F070F940B1206CB3
:104E200004283AD12068016841F40071016034E03F
:104E3000FEB2B8F1010F09D02168380A08612A468C
:104E400020460A9900F05AF90028E8D12068066146
:104E50002A4620460A9900F051F90028DFD120683F
:104E6000016841F480710160009500225946204696
:104E70000A9B00F091F80028B3D1216809F0FF00E7
:104E800040F00100086100E007E02B46044920469D
:104E90000A9A00F0B5F80028AAD00120A8E700007F
:104EA000020001002DE9F843044600680D46DDE9E3
:104EB000089701689846164641F4807101604B4698
:104EC00000224FF001112046009700F065F848B12C
:104ED00020680068C00502D54FF4007020640320EC
:104EE000BDE8F883216805F0FE0008613B464A46AC
:104EF0001549204600F084F888B920684169806926
:104F000000903A464946204600F0F8F848B1206C37
:104F1000042804D12068016841F400710160012077
:104F2000DEE7F5B2B8F1010F09D02168300A086157
:104F30003A464946204600F0E1F80028E7D12068CB
:104F400005610020CCE700000200010070B51646A4
:104F50000D4604460DE02046FFF70EFF08B1012084
:104F600070BD681C05D0FDF7BDFB801BA84207D8AB
:104F700035B120684069C0434007ECD4002070BDC3
:104F8000002044F8300F20216173A073216941F0A3
:104F9000200121612073E2E72DE9F0471E4690468B
:104FA0000D460446C1F30747DDF8209008E0701C69
:104FB00006D0FDF797FBA0EB0900B0420FD876B101
:104FC0002068012F18D0806925EA00000004000C39
:104FD00014D000214145EAD00020BDE8F087002030
:104FE00044F8300F20216173A073216941F0200142
:104FF000216120730120F0E74069E5E70121E9E73D
:105000002DE9F0479A4691460E46044600254FF09A
:105010002008C1F3074725E020684069C0434005E8
:1050200014D42068016841F40071016021686FF4B4
:1050300080604861256384F83D8084F83E50206C90
:1050400040F00400206484F83C501FE0B9F1FF3FB9
:1050500008D0FDF747FBA0EB0A0149450CD8B9F190
:10506000000F09D02068012F13D0806926EA0000C4
:105070000004000C0BD0CFE744F8305F84F80D80BB
:10508000A573206940F02000206125730120BDE850
:10509000F0874069EAE72DE9F041002590460E4689
:1050A0000446202717E04069C043C0060CD454F8DA
:1050B000301B6FF01000486144F810596777A577EE
:1050C000206A2062257717E0FDF70CFBA0EB0800B3
:1050D000B04208D83EB120684169C9434906E2D4CC
:1050E0000020BDE8F08144F8305F6773A573206944
:1050F00040F02000206125730120F2E770B51646CC
:105100000D4604460DE02046FFF736FE08B10120AB
:1051100070BD681C05D0FDF7E5FA801BA84207D8D2
:1051200035B120684069C0430006ECD4002070BD52
:10513000002044F8300F20216173A073216941F0F1
:10514000200121612073E2E7F0B500230A24302515
:1051500037261F4611E000BFB4EB107F02D905EBE4
:10516000107C01E006EB107C01F813C001EB430C4E
:1051700000015B1C8CF80170DBB29342ECD3F0BDF4
:105180007FB50024154800940194029412490394B9
:1051900001604FF40031C0E901140461047680F825
:1051A00020400F49C0E90A140125C561C46080F898
:1051B00030404561FCF799FA08B1FCF7EAF9102094
:1051C000CDE90005694602940448FCF7E5F900289A
:1051D00001D0FCF7DEF97FBD00200140B8090020B6
:1051E0000100000F7FB5002415480094019402943B
:1051F0001249039401604FF40031C0E901140461C5
:10520000047680F820400F49C0E90A140125C561E1
:10521000C46080F830404561FCF767FA08B1FCF7DC
:10522000B8F90820CDE90005694602940448FCF766
:10523000B3F9002801D0FCF7ACF97FBD0022014092
:10524000000A00200100000F0F4810B50D49016051
:105250000321416000214FF410228160C0E9031254
:105260004FF400124261017641768176C176017772
:105270004177FCF7E6FD002803D0BDE81040FCF7BD
:1052800088B910BD00640040480A00200F4810B5DE
:105290000D4901600321416000214FF4102281601B
:1052A000C0E903124FF40012426101764176817623
:1052B000C17601774177FCF7C4FD002803D0BDE833
:1052C0001040FCF766B910BD00680040700A00206D
:1052D000074910B5054808600846FCF73EFF00285E
:1052E00003D0BDE81040FCF754B910BD00300240B7
:1052F0000C000020294808B5016841F480010160D4
:10530000016801F480010091016841F4001101601D
:105310000068002200F40010009005210C20FDF729
:1053200057FD0C20FDF746FD002205212F20FDF73B
:105330004FFD2F20FDF73EFD002205213920FDF70E
:1053400047FD3920FDF736FD002205213A20FDF703
:105350003FFD3A20FDF72EFD002205213B20FDF701
:1053600037FD3B20FDF726FD002205214420FDF7F7
:105370002FFD4420FDF71EFD002205214520FDF7ED
:1053800027FD4520FDF716FD002205214620FDF7EB
:105390001FFDBDE808404620FDF70CBD3038024037
:1053A00010B58EB01C220B496846FBF7F4F80021BB
:1053B000684607F068FD084C06491C2260601C31F5
:1053C00007A8FBF7E8F8002107A807F05CFD2060BC
:1053D0000EB010BD7C040108000000202DE9F04350
:1053E00087B014216846FBF732F968480025016848
:1053F00041F002010160016801F0020105910168BC
:1054000041F040010160016801F04001059101682F
:1054100041F001010160016801F00101059101689D
:1054200041F008010160016801F00801059101687F
:1054300041F004010160016801F004010591016877
:1054400041F480710160016801F480710591016887
:1054500041F020010160016801F02001059101681F
:1054600041F080010160016801F08001059101684F
:1054700041F0100101600068454F00F010000590F8
:10548000012240213846FDF728F9DFF80881012282
:1054900010214046FDF721F9DFF8FC90012241F28E
:1054A00001014846FDF719F98020CDE900050124E6
:1054B000694602943948FDF713F84020CDE900040D
:1054C0000294694638460394FDF70AF809204FF420
:1054D0000416CDE90006694602943846FDF700F847
:1054E0000720CDE900052E4F694638460295FCF7A6
:1054F000F7FFCDE90045694640460294FCF7F0FF0E
:105500001020CDE90004022569464046CDE9024558
:10551000FCF7E6FF3020CDE90006694602943846E4
:10552000FCF7DEFF2003CDE90004029469464846FB
:105530000394FCF7D5FF0094694648460194CDE9F1
:105540000245FCF7CDFF062100220846FDF740FC8E
:105550000620FDF72FFC002205210920FDF738FC6D
:105560000920FDF727FC002205210A20FDF730FC69
:105570000A20FDF71FFC002205211720FDF728FC5B
:105580001720FDF717FC07B0BDE8F0833038024064
:1055900000180240000002400004024000200240C7
:1055A000000802400D4810B50B4901600C494160EC
:1055B00000214FF480428160C0E9031241618161A2
:1055C000C1610162FDF794F8002803D0BDE81040E6
:1055D000FBF7DFBF10BD000000540040980A002018
:1055E000801A06000D4810B50B4901600C49416056
:1055F00000214FF480428160C0E903124161816162
:10560000C1610162FDF774F8002803D0BDE81040C5
:10561000FBF7BFBF10BD000000580040EC0A00209F
:10562000801A06000D4810B50B4901600C49416015
:1056300000214FF480428160C0E903124161816121
:10564000C1610162FDF754F8002803D0BDE81040A5
:10565000FBF79FBF10BD0000005C0040400B002026
:10566000801A0600074910B5054808600846FEF78D
:1056700061FC002803D0BDE81040FBF78ABF10BDD5
:1056800000080650F40B00200C4810B50A490160D0
:1056900000217C22C0E9011240F67F42C0E90321CB
:1056A00041618161FEF774FC002803D0BDE8104021
:1056B000FBF76FBF10BD000000280040040C002065
:1056C000104810B50E4901604FF48271416000210D
:1056D00002228160C0E9031201224261520282610A
:1056E0003822C0E90721416281620A21C162FEF7C6
:1056F000CEFC002803D0BDE81040FBF74ABF10BD28
:1057000000300140240C0020104810B50E49016003
:105710004FF482714160002102228160C0E90312CE
:1057200001224261520282613822C0E907214162AE
:1057300081620A21C162FEF7AAFC002803D0BDE8FD
:105740001040FBF726BF10BD003800407C0C002045
:1057500010B588B01C216846FAF779FF1448134940
:105760000024C0E9001441F28731C0E9024104611C
:105770008461FEF707FF08B1FBF70BFF0C48FFF74A
:105780000BF908B1FBF705FF6020CDE90004029496
:105790000022694606480494FFF798F808B1FBF721
:1057A000F8FE0348FEF7E0FF08B010BD00440140DA
:1057B000FC0E002010B596B000240F9410941194A4
:1057C000129413941C2168461494FAF740FF202188
:1057D00007A8FAF73CFF354833490160A721C0E923
:1057E000011444F61F61C0E9031444618461FEF7AB
:1057F000C9FE08B1FBF7CDFE4FF480500F900FA902
:105800002A48FEF743FF08B1FBF7C3FE2748FFF71E
:10581000C3F808B1FBF7BDFE139413A923481494F1
:10582000FEF768FE08B1FBF7B4FE602000904FF46D
:105830007A70CDE90104039404940594002269462A
:105840001A480694FFF742F808B1FBF7A2FE0422BB
:1058500069461648FFF73AF808B1FBF79AFE0822A6
:1058600069461248FFF732F808B1FBF792FE0C22A6
:1058700069460E48FFF72AF808B1FBF78AFE07943D
:10588000089409944FF400500A94CDE90B4007A9FD
:1058900006480E94FEF703FE08B1FBF77AFE0348B4
:1058A000FEF762FF16B010BD00000140940D00200D
:1058B00010B58EB000240794089409940A940B94B0
:1058C0001C2168460C94FAF7C2FE1E481C49C0E928
:1058D000001442F2CF01C0E9024104618461FEF785
:1058E00051FE08B1FBF755FE4FF48050079007A911
:1058F0001448FEF7CBFE08B1FBF74BFE1148FFF74B
:105900004BF808B1FBF745FE0B940BA90D480C941E
:10591000FEF7F0FD08B1FBF73CFE6020CDE9000486
:1059200002940822694607480494FEF7CFFF08B1A5
:10593000FBF72FFE0348FEF717FF0EB010BD000067
:1059400000040040DC0D002010B58EB00024079448
:10595000089409940A940B941C2168460C94FAF755
:1059600076FE1E481C490160A721C0E901144FF6CC
:10597000FF71C0E903148461FEF704FE08B1FBF770
:1059800008FE4FF48050079007A91448FEF77EFEEA
:1059900008B1FBF7FEFD1148FEF7FEFF08B1FBF76B
:1059A000F8FD0B940BA90D480C94FEF7A3FD08B16C
:1059B000FBF7EFFD6020CDE9000402940822694660
:1059C00006480494FEF782FF08B1FBF7E2FD0348A6
:1059D000FEF7CAFE0EB010BD00080040240E0020E5
:1059E00010B58EB000240794089409940A940B947F
:1059F0001C2168460C94FAF72AFE26482449C0E97F
:105A000000144FF6FF71C0E9024104618461FEF7A2
:105A1000B9FD08B1FBF7BDFD4FF48050079007A911
:105A20001C48FEF733FE08B1FBF7B3FD1948FEF73B
:105A3000B3FF08B1FBF7ADFD0B940BA915480C940F
:105A4000FEF758FD08B1FBF7A4FD6020CDE9000486
:105A50000294002269460F480494FEF737FF08B10C
:105A6000FBF797FD042269460A48FEF72FFF08B1AD
:105A7000FBF78FFD082269460648FEF727FF08B1AD
:105A8000FBF787FD0348FEF76FFE0EB010BD000068
:105A9000000C00406C0E002010B596B000240F944E
:105AA00010941194129413941C2168461494FAF7DC
:105AB000CEFD202107A8FAF7CAFD2D482B49016029
:105AC000A721C0E9011444F61F61C0E90314446131
:105AD0008461FEF757FD08B1FBF75BFD4FF4805082
